{
  "contractName": "SimpleCasino",
  "abi": [
    {
      "inputs": [],
      "stateMutability": "nonpayable",
      "type": "constructor"
    },
    {
      "anonymous": false,
      "inputs": [
        {
          "indexed": true,
          "internalType": "address",
          "name": "player",
          "type": "address"
        },
        {
          "indexed": false,
          "internalType": "uint256",
          "name": "betAmount",
          "type": "uint256"
        },
        {
          "indexed": false,
          "internalType": "bool",
          "name": "win",
          "type": "bool"
        }
      ],
      "name": "Played",
      "type": "event"
    },
    {
      "inputs": [],
      "name": "houseBalance",
      "outputs": [
        {
          "internalType": "uint256",
          "name": "",
          "type": "uint256"
        }
      ],
      "stateMutability": "view",
      "type": "function",
      "constant": true
    },
    {
      "inputs": [],
      "name": "owner",
      "outputs": [
        {
          "internalType": "address",
          "name": "",
          "type": "address"
        }
      ],
      "stateMutability": "view",
      "type": "function",
      "constant": true
    },
    {
      "inputs": [],
      "name": "play",
      "outputs": [
        {
          "internalType": "bool",
          "name": "",
          "type": "bool"
        }
      ],
      "stateMutability": "payable",
      "type": "function",
      "payable": true
    },
    {
      "inputs": [],
      "name": "deposit",
      "outputs": [],
      "stateMutability": "payable",
      "type": "function",
      "payable": true
    },
    {
      "inputs": [
        {
          "internalType": "uint256",
          "name": "amount",
          "type": "uint256"
        }
      ],
      "name": "withdraw",
      "outputs": [],
      "stateMutability": "nonpayable",
      "type": "function"
    },
    {
      "inputs": [],
      "name": "getHouseBalance",
      "outputs": [
        {
          "internalType": "uint256",
          "name": "",
          "type": "uint256"
        }
      ],
      "stateMutability": "view",
      "type": "function",
      "constant": true
    }
  ],
  "bytecode": "0x608060405234801561001057600080fd5b50336000806101000a81548173ffffffffffffffffffffffffffffffffffffffff021916908373ffffffffffffffffffffffffffffffffffffffff160217905550610a36806100606000396000f3fe6080604052600436106100555760003560e01c806305a8d5691461005a5780632e1a7d4d1461008557806367084eb3146100ae5780638da5cb5b146100d957806393e84cd914610104578063d0e30db014610122575b600080fd5b34801561006657600080fd5b5061006f61012c565b60405161007c91906104f1565b60405180910390f35b34801561009157600080fd5b506100ac60048036038101906100a7919061053d565b610136565b005b3480156100ba57600080fd5b506100c361026c565b6040516100d091906104f1565b60405180910390f35b3480156100e557600080fd5b506100ee610272565b6040516100fb91906105ab565b60405180910390f35b61010c610296565b60405161011991906105e1565b60405180910390f35b61012a610425565b005b6000600154905090565b60008054906101000a900473ffffffffffffffffffffffffffffffffffffffff1673ffffffffffffffffffffffffffffffffffffffff163373ffffffffffffffffffffffffffffffffffffffff16146101c4576040517f08c379a00000000000000000000000000000000000000000000000000000000081526004016101bb90610659565b60405180910390fd5b806001541015610209576040517f08c379a0000000000000000000000000000000000000000000000000000000008152600401610200906106c5565b60405180910390fd5b806001600082825461021b9190610714565b925050819055503373ffffffffffffffffffffffffffffffffffffffff166108fc829081150290604051600060405180830381858888f19350505050158015610268573d6000803e3d6000fd5b5050565b60015481565b60008054906101000a900473ffffffffffffffffffffffffffffffffffffffff1681565b60008034116102da576040517f08c379a00000000000000000000000000000000000000000000000000000000081526004016102d1906107ba565b60405180910390fd5b6002346102e791906107da565b600154101561032b576040517f08c379a0000000000000000000000000000000000000000000000000000000008152600401610322906106c5565b60405180910390fd5b6000610335610483565b905080156103b457600060023461034c91906107da565b905080600160008282546103609190610714565b925050819055503373ffffffffffffffffffffffffffffffffffffffff166108fc829081150290604051600060405180830381858888f193505050501580156103ad573d6000803e3d6000fd5b50506103ce565b34600160008282546103c6919061081c565b925050819055505b3373ffffffffffffffffffffffffffffffffffffffff167f36b1c45d0746bed1194d8f3b657b91a90bdb3fd58fc924b6e7138157b76a9ced3483604051610416929190610850565b60405180910390a28091505090565b60003411610468576040517f08c379a000000000000000000000000000000000000000000000000000000000815260040161045f906108eb565b60405180910390fd5b346001600082825461047a919061081c565b92505081905550565b6000806025423360405160200161049b929190610974565b6040516020818303038152906040528051906020012060001c6104be91906109cf565b9050600181101580156104d2575060128111155b91505090565b6000819050919050565b6104eb816104d8565b82525050565b600060208201905061050660008301846104e2565b92915050565b600080fd5b61051a816104d8565b811461052557600080fd5b50565b60008135905061053781610511565b92915050565b6000602082840312156105535761055261050c565b5b600061056184828501610528565b91505092915050565b600073ffffffffffffffffffffffffffffffffffffffff82169050919050565b60006105958261056a565b9050919050565b6105a58161058a565b82525050565b60006020820190506105c0600083018461059c565b92915050565b60008115159050919050565b6105db816105c6565b82525050565b60006020820190506105f660008301846105d2565b92915050565b600082825260208201905092915050565b7f4f6e6c79206f776e65722063616e207769746864726177000000000000000000600082015250565b60006106436017836105fc565b915061064e8261060d565b602082019050919050565b6000602082019050818103600083015261067281610636565b9050919050565b7f496e73756666696369656e7420686f7573652062616c616e6365000000000000600082015250565b60006106af601a836105fc565b91506106ba82610679565b602082019050919050565b600060208201905081810360008301526106de816106a2565b9050919050565b7f4e487b7100000000000000000000000000000000000000000000000000000000600052601160045260246000fd5b600061071f826104d8565b915061072a836104d8565b9250828203905081811115610742576107416106e5565b5b92915050565b7f42657420616d6f756e74206d7573742062652067726561746572207468616e2060008201527f3000000000000000000000000000000000000000000000000000000000000000602082015250565b60006107a46021836105fc565b91506107af82610748565b604082019050919050565b600060208201905081810360008301526107d381610797565b9050919050565b60006107e5826104d8565b91506107f0836104d8565b92508282026107fe816104d8565b91508282048414831517610815576108146106e5565b5b5092915050565b6000610827826104d8565b9150610832836104d8565b925082820190508082111561084a576108496106e5565b5b92915050565b600060408201905061086560008301856104e2565b61087260208301846105d2565b9392505050565b7f4465706f73697420616d6f756e74206d7573742062652067726561746572207460008201527f68616e2030000000000000000000000000000000000000000000000000000000602082015250565b60006108d56025836105fc565b91506108e082610879565b604082019050919050565b60006020820190508181036000830152610904816108c8565b9050919050565b6000819050919050565b610926610921826104d8565b61090b565b82525050565b60008160601b9050919050565b60006109448261092c565b9050919050565b600061095682610939565b9050919050565b61096e6109698261058a565b61094b565b82525050565b60006109808285610915565b602082019150610990828461095d565b6014820191508190509392505050565b7f4e487b7100000000000000000000000000000000000000000000000000000000600052601260045260246000fd5b60006109da826104d8565b91506109e5836104d8565b9250826109f5576109f46109a0565b5b82820690509291505056fea2646970667358221220e70a101172b1541fd0182c7a9da2a6be42b5a457d6e5605051c23e567337f60564736f6c63430008130033",
  "immutableReferences": {},
  "source": "// SPDX-License-Identifier: MIT\r\npragma solidity ^0.8.0;\r\n\r\ncontract SimpleCasino {\r\n    address public owner;\r\n    uint256 public houseBalance;\r\n\r\n    event Played(address indexed player, uint256 betAmount, bool win);\r\n\r\n    constructor() {\r\n        owner = msg.sender;\r\n    }\r\n\r\n    function play() external payable returns (bool) {\r\n        require(msg.value > 0, \"Bet amount must be greater than 0\");\r\n        require(houseBalance >= msg.value * 2, \"Insufficient house balance\");\r\n\r\n        bool win = _randomWin();\r\n        if (win) {\r\n            uint256 prize = msg.value * 2;\r\n            houseBalance -= prize;\r\n            payable(msg.sender).transfer(prize);\r\n        } else {\r\n            houseBalance += msg.value;\r\n        }\r\n\r\n        emit Played(msg.sender, msg.value, win);\r\n        return win;\r\n    }\r\n\r\n    function _randomWin() private view returns (bool) {\r\n        uint256 randomNumber = uint256(keccak256(abi.encodePacked(block.timestamp, msg.sender))) % 37;\r\n        return (randomNumber >= 1 && randomNumber <= 18);\r\n    }\r\n\r\n    function deposit() external payable {\r\n        require(msg.value > 0, \"Deposit amount must be greater than 0\");\r\n        houseBalance += msg.value;\r\n    }\r\n\r\n    function withdraw(uint256 amount) external {\r\n        require(msg.sender == owner, \"Only owner can withdraw\");\r\n        require(houseBalance >= amount, \"Insufficient house balance\");\r\n\r\n        houseBalance -= amount;\r\n        payable(msg.sender).transfer(amount);\r\n    }\r\n\r\n    function getHouseBalance() external view returns (uint256) {\r\n        return houseBalance;\r\n    }\r\n}\r\n",
  "sourcePath": "D:\\Fun\\Projects\\Sandbox\\web3-sandbox\\contracts\\SimpleCasino.sol",
  "compiler": {
    "name": "solc",
    "version": "0.8.19+commit.7dd6d404.Emscripten.clang"
  },
  "schemaVersion": "3.4.13",
  "updatedAt": "2023-04-25T09:02:50.383Z",
  "networkType": "ethereum",
  "devdoc": {
    "kind": "dev",
    "methods": {},
    "version": 1
  },
  "userdoc": {
    "kind": "user",
    "methods": {},
    "version": 1
  }
}